:020000040800F2
:1000000000300020B5100008590D0008610D0008EF
:1000100000000000000000000000000000000000E0
:10002000000000000000000000000000690D000852
:100030000000000000000000730D00087D0D0008A6
:100040000511000800000000051100080511000856
:1000500005110008051100088B0D000805110008A6
:100060000000000005110008051100080511000836
:100070000511000805110008051100080000000026
:100080000511000800000000000000000511000834
:100090000000000005110008051100080511000806
:1000A0000000000005110008000000009D0D000880
:1000B0000511000800000000000000000000000022
:1000C00010B5064C2378002B07D1054B002B02D02E
:1000D000044800E000BF0123237010BD740000201D
:1000E00000000000844B0008044B10B5002B03D027
:1000F0000349044800E000BF10BDC04600000000F6
:1001000078000020844B000803B471464908400081
:100110004900095E49008E4403BC70470022430831
:100120008B4274D303098B425FD3030A8B4244D3BF
:10013000030B8B4228D3030C8B420DD3FF22090201
:1001400012BA030C8B4202D31212090265D0030BC0
:100150008B4219D300E0090AC30B8B4201D3CB03B6
:10016000C01A5241830B8B4201D38B03C01A5241F8
:10017000430B8B4201D34B03C01A5241030B8B42FA
:1001800001D30B03C01A5241C30A8B4201D3CB02E5
:10019000C01A5241830A8B4201D38B02C01A5241CA
:1001A000430A8B4201D34B02C01A5241030A8B42CD
:1001B00001D30B02C01A5241CDD2C3098B4201D3E5
:1001C000CB01C01A524183098B4201D38B01C01A63
:1001D000524143098B4201D34B01C01A52410309DA
:1001E0008B4201D30B01C01A5241C3088B4201D389
:1001F000CB00C01A524183088B4201D38B00C01A36
:10020000524143088B4201D34B00C01A5241411A5C
:1002100000D20146524110467047FFE701B5002069
:1002200000F0F0F802BDC0460029F7D076E770472D
:1002300003460B437FD4002243088B4274D3030947
:100240008B425FD3030A8B4244D3030B8B4228D3E8
:10025000030C8B420DD3FF22090212BA030C8B420E
:1002600002D31212090265D0030B8B4219D300E0AE
:10027000090AC30B8B4201D3CB03C01A5241830B33
:100280008B4201D38B03C01A5241430B8B4201D3E3
:100290004B03C01A5241030B8B4201D30B03C01A0C
:1002A0005241C30A8B4201D3CB02C01A5241830A86
:1002B0008B4201D38B02C01A5241430A8B4201D3B5
:1002C0004B02C01A5241030A8B4201D30B02C01ADF
:1002D0005241CDD2C3098B4201D3CB01C01A524146
:1002E00083098B4201D38B01C01A524143098B42CF
:1002F00001D34B01C01A524103098B4201D30B01B8
:10030000C01A5241C3088B4201D3CB00C01A5241DC
:1003100083088B4201D38B00C01A524143088B42A1
:1003200001D34B00C01A5241411A00D2014652413A
:10033000104670475DE0CA0F00D04942031000D359
:100340004042534000229C4603098B422DD3030AAE
:100350008B4212D3FC22890112BA030A8B420CD3BE
:10036000890192118B4208D3890192118B4204D3E7
:1003700089013AD0921100E08909C3098B4201D367
:10038000CB01C01A524183098B4201D38B01C01AA1
:10039000524143098B4201D34B01C01A5241030918
:1003A0008B4201D30B01C01A5241C3088B4201D3C7
:1003B000CB00C01A524183088B4201D38B00C01A74
:1003C0005241D9D243088B4201D34B00C01A52414B
:1003D000411A00D20146634652415B10104601D3D8
:1003E0004042002B00D54942704763465B1000D362
:1003F000404201B5002000F005F802BD0029F8D008
:1004000016E770477047C04680B582B000AF78608D
:10041000034B01221A70C046BD4602B080BDC046E3
:100420009000002090B589B002AFF860B9607A60A2
:100430003B6000237B61FB685868FB689B689BB24C
:100440000022190001F02CFAFB6818683B689BB287
:100450007A68B968094C009401F062FF03007B617F
:10046000FB685868FB689B689BB20122190001F089
:1004700017FA7B691800BD4607B090BD88130000CD
:1004800080B582B000AF0200BB1D1A80064B01226E
:100490001A7000F0ABFE03001A00044B1A60C0464D
:1004A000BD4602B080BDC046A90000209C000020CF
:1004B00080B582B000AF0200BB1D1A80214B1B78B3
:1004C000002B3AD01F4B00221A7000F08FFE030061
:1004D0001A001D4B1A601C4B1A681C4B1B68D21A61
:1004E0001B4B1A601A4B1A6896235B009A420FDB6B
:1004F000174B1A68FA235B009A4209DA154B1B78EE
:100500000133DAB2134B1A70114B00221A6014E057
:100510000F4B1A68FA235B009A4206DB0E4B01224E
:100520001A700B4B00221A6007E0094B1968094B3F
:100530001B781A00C9B2094B9954C046BD4602B097
:1005400080BDC046A9000020A00000209C00002023
:10055000A4000020A800002098000020AC0000208B
:1005600080B500AF184B180000F03AF8174A164B48
:100570001100180000F098F8154A134B11001800EC
:1005800000F004F9134B1B78002B10D0114B002204
:100590001A70114B00221A70104B1B681A000A4B7C
:1005A0001100180000F080F80C4B00221A60084A75
:1005B000054B1100180000F0E9F8C8235B00180093
:1005C00000F01EFEDEE7C0460000002000093D00EE
:1005D0009400002098000020A8000020AC0000201B
:1005E00080B584B000AF78600023FB602C4A7B6844
:1005F0000821180000F056F90300FB60FB6808337F
:1006000002D106235B4247E0FB68002B01D0FB6868
:1006100042E0FB68002B01D0FB683DE07B680022D4
:100620000321180000F03EF90300FB60FB68002B7B
:1006300001D0FB6830E07B681F220521180000F024
:1006400031F90300FB60FB68002B01D0FB6823E05D
:10065000144A7B680621180000F024F90300FB60AF
:10066000FB68002B01D0FB6816E07B682522072180
:10067000180000F017F90300FB60FB68002B01D0A5
:10068000FB6809E080235A007B681100180000F025
:1006900031F80300FB60FB681800BD4604B080BD64
:1006A0003CC300006C26000080B582B000AF7860CB
:1006B00039603B680D4A934203D93B680C4A934228
:1006C00002D916235B420DE03B68B72251001800A7
:1006D000FFF7AEFD03009AB27B680421180000F01A
:1006E000E1F803001800BD4602B080BD7F841E0003
:1006F00000366E0180B582B000AF78600A00BB1C86
:100700001A80BB1C1A8880235B009A4207D11C4ABE
:100710007B680421180000F0C5F803002BE0BB1C27
:100720001A8880239B009A4207D1164A7B680421CD
:10073000180000F0B7F803001DE0BB1C1A888023E6
:100740001B019A4207D1104A7B680421180000F06F
:10075000A9F803000FE0BB1C1A8880235B019A42B2
:1007600007D17B6825220421180000F09BF80300C4
:1007700001E016235B421800BD4602B080BDC046B2
:100780006C2600008E280000CADA000090B585B003
:1007900000AF786039600023FB603B6800221A607C
:1007A0000A23FA187B680921180000F0A9F8030051
:1007B000FB60FB68083305D13B681B6801221A43C4
:1007C0003B681A60FB68002B01D0FB6866E00A23D7
:1007D000FB181B881A000323134005D03B681B68D5
:1007E00002221A433B681A600A23FB181B881A006E
:1007F0000423134005D03B681B6804221A433B685E
:100800001A600A23FB181B881A000823134005D01E
:100810003B681B6808221A433B681A600A23FA18CF
:100820007B680421180000F06BF80300FB60FB6894
:10083000002B01D0FB6831E008243A197B680621BF
:10084000180000F05DF80300FB600A23FB181A880B
:100850003B191B889A4205D13B681B6810221A433A
:100860003B681A60FB68002B01D0FB6816E0082487
:100870003A197B680721180000F042F80300FB607A
:100880000A23FB181A883B191B889A4205D13B683A
:100890001B6820221A433B681A60FB681800BD469B
:1008A00005B090BD80B584B000AF7860080011003D
:1008B000FB1C021C1A703B000A1C1A800E23FB183A
:1008C0003A0012881A803A00FB1C19787B681800DD
:1008D00000F030F80300BB60BB68002B01D0BB68A0
:1008E0000AE03B001B880E22BA1812889A4202D0F6
:1008F00008235B4200E0BB681800BD4604B080BD21
:1009000080B584B000AFF8607A600B203B180A1CF9
:100910001A703B181B78802252421343D9B27A686E
:10092000FB68180000F006F803001800BD4604B08C
:1009300080BD000090B589B000AFF8607A600B20F0
:100940003B180A1C1A700023FB611823FB18394A54
:1009500012881A800222002199543B181B788022A9
:100960009343002B05DC344B344A3548352103F0E2
:1009700039F90B23FB181B7880229343092B05DDE3
:10098000304B2E4A2E48362103F02CF914217B18C7
:100990000B22BA1812781A707B681B881B0A9BB24C
:1009A000DAB27B185A707B681B88DAB27B189A70AF
:1009B0001823FA187918F8680323FFF733FD0300AA
:1009C000FB6100F041F8FB69002B01D0FB692CE0D2
:1009D00014217B1802221A707B1800225A707B188F
:1009E00000229A7018243A197918F8680323FFF73F
:1009F00019FD0300FB6100F027F83B191B780B225F
:100A0000BA1812789A4202D008235B420DE01821EE
:100A10007B185B781B021AB27B189B781BB21343BE
:100A20001BB29AB27B681A80FB691800BD4609B0F8
:100A300090BDC046084C00089C4B00080C4C0008B8
:100A4000BC4B0008E84B000880B500AF322000F036
:100A5000D7FBC046BD4680BD80B586B000AF3B1D0C
:100A6000180014231A00002103F0FAF9294B5A6BDD
:100A7000284B01210A435A63264B5B6B012213402A
:100A80003B603B68A023DB0501221021180000F029
:100A900007FF3B1D04221A603B1D1F4A5A603B1D85
:100AA00002229A603A1DA023DB051100180000F015
:100AB00085FD3B1D10221A603B1D01225A603B1D23
:100AC00000229A603B1D0022DA603A1DA023DB055C
:100AD0001100180000F072FD3B1D802252001A60C8
:100AE0003B1D00225A603B1D00229A603A1DA02344
:100AF000DB051100180000F061FD00220021062036
:100B000000F04EFC062000F060FCC046BD4606B07A
:100B100080BDC046001002400000311080B500AF1B
:100B200000F0F1FA00F00AF8FFF796FF00F050F835
:100B300000F00AFAFFF714FDC046FDE790B58DB04E
:100B400000AF14243B1918001C231A00002103F0E5
:100B500087F93B00180014231A00002103F080F9E4
:100B60003B1902221A603B1980225200DA603B19BD
:100B700000221A613B1940225A613B19180000F00B
:100B8000D7FE031E01D000F01CF83B0007221A60BC
:100B90003B0000225A603B0000229A603B0000228A
:100BA000DA603B0000221A613B000121180001F0CD
:100BB000A3F8031E01D000F004F8C046BD460DB0F6
:100BC00090BD80B500AF72B6C046C046FDE70000DC
:100BD00080B500AF1B4B1C4A1A601A4B8222520090
:100BE0005A60184B00229A60164BE022D200DA605D
:100BF000144B00221A61134B00225A61114B8022C0
:100C000092009A610F4B2022DA610E4B00221A6289
:100C10000C4B00225A620B4B00229A62094B0722AE
:100C2000DA62084B00221A63064B08225A63054B0E
:100C3000180001F0BDFA031E01D0FFF7C2FFC04645
:100C4000BD4680BDB00000200030014090B591B09D
:100C500000AF78602C23FB18180014231A00002121
:100C600003F0FEF810243B1918001C231A00002181
:100C700003F0F6F87B681B68234A93423FD13B1987
:100C8000802212011A603B1900221A613B191800D8
:100C900001F0A0F9031E01D0FFF793FF1B4B1A6C64
:100CA0001A4B802149010A431A64184B1A6C80239D
:100CB0005B011340FB60FB68144B5A6B134B012123
:100CC0000A435A63114B5B6B01221340BB60BB6844
:100CD0002C217B18E0221A607B1802225A607B18B4
:100CE00000229A607B180022DA607B1800221A61C9
:100CF0007A18A023DB051100180000F05FFCC04645
:100D0000BD4611B090BDC046003001400010024009
:100D100080B582B000AF0F4B1A6C0E4B01210A4315
:100D20001A640C4B1B6C012213407B607B68094BDF
:100D3000DA6B084B802149050A43DA63054BDA6B0D
:100D400080235B0513403B603B68C046BD4602B054
:100D500080BDC0460010024080B500AFC046FDE730
:100D600080B500AFC046FDE780B500AFC046BD46C8
:100D700080BD80B500AFC046BD4680BD80B500AF28
:100D800000F022FAC046BD4680BD80B500AF042009
:100D900000F0A4FDC046BD4680BD000080B500AF98
:100DA000034B180001F0C2FEC046BD4680BDC046E0
:100DB0001801002080B500AF01231800BD4680BD9A
:100DC00080B582B000AF7860396003F09FF803000F
:100DD00016221A6001235B421800BD4602B080BD96
:100DE00080B582B000AF786001235A427B68110061
:100DF0001800FFF7E5FFC046FDE780B586B000AFFD
:100E0000F860B9607A6000237B610AE000E000BF0F
:100E10000100BB685A1CBA60CAB21A707B69013300
:100E20007B617A697B689A42F0DB7B681800BD467B
:100E300006B080BD80B586B000AFF860B9607A605A
:100E400000237B6109E0BB685A1CBA601B7818005C
:100E500000E000BF7B6901337B617A697B689A425D
:100E6000F1DB7B681800BD4606B080BD80B582B05E
:100E700000AF786001235B421800BD4602B080BD20
:100E800080B582B000AF786039603B688022920103
:100E90005A6000231800BD4602B080BD80B582B004
:100EA00000AF786001231800BD4602B080BD80B558
:100EB00084B000AFF860B9607A6000231800BD46C6
:100EC00004B080BD80B586B000AF7860144A154B81
:100ED000D31A7B617B693B61134B1B68002B02D1EA
:100EE000114B124A1A60104B1A687B68D3183A6982
:100EF0009A4207D203F00AF803000C221A60012379
:100F00005B4209E0084B1B68FB60074B1A687B6873
:100F1000D218054B1A60FB681800BD4606B080BDAC
:100F20000030002000040000140100200003002015
:100F300080B500AF034B802212059A60C046BD46C3
:100F400080BDC04600ED00E080B500AF234B244AD1
:100F50001A60224BE12252025A60204B00229A6012
:100F60001E4B0022DA601D4B00221A611B4B0C2223
:100F70005A611A4B00229A61184B0022DA61174B12
:100F800000221A62154B00225A62144B00229A6208
:100F9000124B180001F074FD031E01D0FFF711FE83
:100FA0000E4B0021180002F03DFD031E01D0FFF79B
:100FB00008FE0A4B0021180002F074FD031E01D048
:100FC000FFF7FFFD054B180002F0F2FC031E01D0F5
:100FD000FFF7F7FDC046BD4680BDC04618010020A2
:100FE0000038014090B591B000AF78602C23FB1819
:100FF000180014231A00002102F032FF10243B19BC
:1010000018001C231A00002102F02AFF7B681B68CD
:10101000264A934246D13B1901221A603B1900220D
:101020009A603B19180000F0D5FF031E01D0FFF7AE
:10103000C8FD1F4B1A6C1E4B8021C9010A431A645C
:101040001B4B1A6C8023DB011340FB60FB68184BC1
:101050005A6B174B01210A435A63154B5B6B0122F4
:101060001340BB60BB682C217B1803221A607B18DD
:1010700002225A607B1800229A607B180022DA60F4
:101080007B1804221A617A18A023DB0511001800CE
:1010900000F094FA002200211B2000F081F91B20AF
:1010A00000F093F9C046BD4611B090BD0038014034
:1010B000001002400D488546FFF73AFF002103E08B
:1010C0000B4B5B58435004310A480B4B42189A4271
:1010D000F6D30A4A02E0002313600432084B9A4216
:1010E000F9D302F019FFFFF719FDFEE700300020E9
:1010F000204D000800000020740000207400002033
:10110000FC020020FEE780B582B000AFFB1D00228C
:101110001A70032000F00EF8031E03D0FB1D0122FD
:101120001A7001E0FFF7F4FDFB1D1B781800BD46A7
:1011300002B080BD90B585B000AF78600F23FB187A
:1011400000221A701D4B1B78002B2BD01C4B1C68E7
:101150001A4B1B781900FA239800FEF7DFFF0300F3
:1011600019002000FEF7DAFF0300180000F03DF937
:10117000031E12D17B68032B0AD8796801235B42D6
:101180000022180000F00CF90E4B7A681A600DE08E
:101190000F23FB1801221A7008E00F23FB1801220D
:1011A0001A7003E00F23FB1801221A700F23FB189B
:1011B0001B781800BD4605B090BDC0461400002045
:1011C0000C0000201000002080B500AF054B1B78FC
:1011D0001A00054B1B68D218034B1A60C046BD4667
:1011E00080BDC04614000020AC01002080B500AFD7
:1011F000024B1B681800BD4680BDC046AC010020F4
:1012000080B584B000AF7860FFF7F0FF0300BB60EB
:101210007B68FB60FB68013305D00A4B1B781A0022
:10122000FB689B18FB60C046FFF7E0FF0200BB684D
:10123000D31AFA689A42F7D8C046C046BD4604B0F1
:1012400080BDC0461400002080B582B000AF02000F
:10125000FB1D1A70FB1D1B787F2B09D8FB1D1B780B
:101260001A001F231A40044B012191400A001A6002
:10127000C046BD4602B080BD00E100E090B583B03D
:1012800000AF02003960FB1D1A70FB1D1B787F2B1D
:1012900028D82F4AFB1D1B785BB29B08C0339B00EC
:1012A0009B58FA1D1278110003220A40D200FF2138
:1012B00091400A00D2431A4011003B689B01FF2273
:1012C0001A40FB1D1B78180003230340DB009A40E3
:1012D0001F48FB1D1B785BB29B080A43C0339B0071
:1012E0001A5031E01B4AFB1D1B7819000F230B40DD
:1012F000083B9B0806339B00D31804331B68FA1D78
:101300001278110003220A40D200FF2191400A0006
:10131000D2431A4011003B689B01FF221A40FB1D7B
:101320001B78180003230340DB009A400948FB1D8B
:101330001B781C000F232340083B9B080A430633FD
:101340009B00C31804331A60C046BD4603B090BD6D
:1013500000E100E000ED00E080B582B000AF786011
:101360007B685A1E80235B049A4201D3012310E05C
:101370000A4B7A68013A5A6001235B420321180044
:10138000FFF77CFF054B00229A60044B07221A608E
:1013900000231800BD4602B080BDC04610E000E04A
:1013A00080B584B000AFB9607A600F217B18021C51
:1013B0001A70BA687B181B785BB211001800FFF72F
:1013C0005DFFC046BD4604B080BD80B582B000AFB1
:1013D0000200FB1D1A70FB1D1B785BB21800FFF7A3
:1013E00033FFC046BD4602B080BD80B582B000AFBD
:1013F00078607B681800FFF7AFFF03001800BD4658
:1014000002B080BD80B582B000AF78607B68002BF1
:1014100001D1012350E07B6825229B5CDBB2022BCB
:1014200008D07B680422DA637B6824220021995467
:10143000012341E07B681B681A687B681B680E21EA
:101440008A431A607B685B6C1A687B685B6C1C491A
:101450000A401A607B681B681A687B681B68012158
:101460008A431A60174B59687B681B6C1C22134017
:1014700001229A40134B0A435A607B689B6C7A683E
:10148000D26C5A607B681B6D002B0CD07B681B6D87
:101490001A687B681B6D0A490A401A607B685B6D9D
:1014A0007A68926D5A607B682522012199547B6885
:1014B00024220021995400231800BD4602B080BDAB
:1014C000FFFEFFFF0000024080B584B000AF7860EF
:1014D0000F23FB1800221A707B68242200219954E4
:1014E0007B6824229B5C012B01D102235EE07B6898
:1014F0002422012199547B6825229B5CDBB2022BBC
:1015000007D07B680422DA630F23FB1801221A70CC
:1015100049E07B681B681A687B681B680E218A4358
:101520001A607B681B681A687B681B6801218A4304
:101530001A607B685B6C1A687B685B6C1D490A40AB
:101540001A601D4B59687B681B6C1C2213400122DA
:101550009A40194B0A435A607B689B6C7A68D26C3C
:101560005A607B681B6D002B0CD07B681B6D1A6862
:101570007B681B6D0F490A401A607B685B6D7A6857
:10158000926D5A607B682522012199547B68242240
:10159000002199547B689B6B002B04D07B689B6B6C
:1015A0007A68100098470F23FB181B781800BD4677
:1015B00004B080BDFFFEFFFF0000024080B586B092
:1015C00000AF7860396000233B6153E13B681B68E2
:1015D00001213A6991400A001340FB60FB68002B2F
:1015E00000D144E13B685B68022B03D03B685B6839
:1015F000122B25D13B69DA087B6808329200D35858
:101600007B613B69072213409B000F229A40130025
:10161000DA437B6913407B613B681B690F221A40E8
:101620003B6907210B409B009A4013007A691343E2
:101630007B613B69DA087B68083292007969D15096
:101640007B681B687B613B695B0003229A40130047
:10165000DA437B6913407B613B685B6803221A4075
:101660003B695B009A4013007A6913437B617B6896
:101670007A691A603B685B68012B0BD03B685B683A
:10168000022B07D03B685B68112B03D03B685B687B
:10169000122B30D17B689B687B613B695B00032226
:1016A0009A401300DA437B6913407B613B68DA6838
:1016B0003B695B009A4013007A6913437B617B6846
:1016C0007A699A607B685B687B6101223B699A401A
:1016D0001300DA437B6913407B613B685B681B093D
:1016E00001221A403B699A4013007A6913437B61D7
:1016F0007B687A695A603B685B68032B17D07B680C
:10170000DB687B613B695B0003229A401300DA438C
:101710007B6913407B613B689A683B695B009A4038
:1017200013007A6913437B617B687A69DA603B68EE
:101730005A6880235B05134000D198E0534A3B6907
:101740009B0818339B009B587B613B690322134025
:10175000DB000F229A401300DA437B6913407B6160
:101760007A68A023DB059A4219D07B68484A9342E5
:1017700013D07B68474A93420DD07B68464A934218
:1017800007D07B68454A934201D1052308E0062330
:1017900006E0032304E0022302E0012300E000232B
:1017A0003A6903210A40D20093407A6913437B616E
:1017B00036493B699B0818339B007A695A50334A73
:1017C0008023D3587B61FB68DA437B6913407B61DC
:1017D0003B685A6880235B02134003D07A69FB6838
:1017E00013437B61294980227B698B50274A8423DC
:1017F000D3587B61FB68DA437B6913407B613B68AC
:101800005A6880239B02134003D07A69FB68134314
:101810007B611E4984227B698B501C4B1B687B615A
:10182000FB68DA437B6913407B613B685A6880231D
:101830005B03134003D07A69FB6813437B61134B4E
:101840007A691A60114B5B687B61FB68DA437B69DC
:1018500013407B613B685A6880239B03134003D08D
:101860007A69FB6813437B61084B7A695A603B696C
:1018700001333B613B681A683B69DA40131E00D0B4
:10188000A4E6C046C046BD4606B080BD0018024072
:101890000004005000080050000C005000140050DC
:1018A00080B582B000AF786008001100BB1C021C3C
:1018B0001A807B1C0A1C1A707B1C1B78002B04D01E
:1018C000BB1C1A887B689A6103E0BB1C1A887B6882
:1018D0009A62C046BD4602B080BD000080B582B0AD
:1018E00000AF0200BB1D1A80104BDB68BA1D1288C6
:1018F000134008D00D4BBA1D1288DA60BB1D1B883F
:101900001800FEF7BDFD094B1B69BA1D1288134074
:1019100008D0064BBA1D12881A61BB1D1B8818001F
:10192000FEF7C6FDC046BD4602B080BD00180240AD
:1019300080B586B000AF78607B68002B01D10123B1
:10194000D0E17B681B680122134000D169E0C84BDD
:101950009B68382213407B617B69082B05D17B682B
:101960005B68002B5DD10123BCE17B685A68802352
:101970005B029A4207D1BE4B1A68BD4B80214902D7
:101980000A431A6020E07B685A68A023DB029A426F
:101990000ED1B74B1A68B64B8021C9020A431A60B0
:1019A000B34B1A68B24B802149020A431A600BE01C
:1019B000AF4B1A68AE4BAF490A401A60AC4B1A687D
:1019C000AB4BAD490A401A607B685B68002B14D0B2
:1019D000FFF70CFC03003B6108E0FFF707FC020087
:1019E0003B69D31A642B01D903237BE1A04B1A680E
:1019F00080239B021340F0D013E0FFF7F7FB0300B6
:101A00003B6108E0FFF7F2FB02003B69D31A642B4D
:101A100001D9032366E1964B1A6880239B02134089
:101A2000F0D17B681B680222134000D186E0904B06
:101A30009B68382213407B617B69002B2FD17B6828
:101A4000DB68002B01D101234CE1894B5B688B4A99
:101A5000134019007B685B691A02854B0A435A6080
:101A60007B69002B12D1824B1B68854A13401900F9
:101A70007B681A697E4B0A431A607D4B1B68DB0A40
:101A8000072213407F4ADA407F4B1A607F4B1B6866
:101A90001800FFF74FFB031E50D0012322E17B68A3
:101AA000DB68002B30D0724B1B68754A134019005D
:101AB0007B681A696E4B0A431A606D4B1A686C4B4F
:101AC000802149000A431A60FFF790FB03003B6145
:101AD00008E0FFF78BFB02003B69D31A022B01D908
:101AE0000323FFE0624B1A688023DB001340F0D031
:101AF0005F4B5B68614A134019007B685B691A029F
:101B00005B4B0A435A6019E0594B1A68584B6049BD
:101B10000A401A60FFF76AFB03003B6108E0FFF729
:101B200065FB02003B69D31A022B01D90323D9E0DC
:101B30004F4B1A688023DB001340F0D17B681B6891
:101B40000822134042D04A4B9B6838221340182B7E
:101B500005D17B689B69002B38D10123C2E07B68EB
:101B60009B69002B19D0424B1A6E414B01210A434D
:101B70001A66FFF73BFB03003B6108E0FFF736FB0B
:101B800002003B69D31A022B01D90323AAE0384B88
:101B90001B6E02221340F1D018E0354B1A6E344B05
:101BA00001218A431A66FFF721FB03003B6108E02D
:101BB000FFF71CFB02003B69D31A022B01D9032358
:101BC00090E02B4B1B6E02221340F1D17B681B6807
:101BD0000422134000D184E00F23FB1800221A7066
:101BE000234B9B6838221340202B06D17B689B68CF
:101BF000002B00D075E0012374E07B689B68012B0B
:101C000006D11B4BDA6D1A4B01210A43DA651CE041
:101C10007B689B68052B0CD1154BDA6D144B0421A6
:101C20000A43DA65124BDA6D114B01210A43DA657A
:101C30000BE00F4BDA6D0E4B01218A43DA650C4B3A
:101C4000DA6D0B4B04218A43DA657B689B68002BB5
:101C500028D0FFF7CBFA03003B611DE0FFF7C6FA7F
:101C600002003B69D31A0B4A934215D9032339E08A
:101C700000100240FFFFFEFFFFFFFBFFFF80FFFFA2
:101C8000FFC7FFFF006CDC020C00002010000020EA
:101C9000FFFEFFFF88130000144BDB6D0222134090
:101CA000DCD013E0FFF7A2FA03003B6109E0FFF785
:101CB0009DFA02003B69D31A0D4A934201D90323CE
:101CC00010E00A4BDB6D02221340F0D10F23FB180A
:101CD0001B78012B05D1054BDA6B044B05490A40F3
:101CE000DA6300231800BD4606B080BD0010024034
:101CF00088130000FFFFFFEF80B584B000AF78606D
:101D000039607B68002B01D10123E9E0764B1B6829
:101D1000072213403A689A421ED9734B1B68072268
:101D200093431900704B3A680A431A60FFF75EFA52
:101D30000300FB6009E0FFF759FA0200FB68D31AC1
:101D40006A4A934201D90323CAE0674B1B68072202
:101D500013403A689A42EED17B681B680222134016
:101D600017D07B681B680422134008D0604B9B6827
:101D7000604A1A405E4BB02109010A439A605C4BED
:101D80009B685D4A134019007B68DA68584B0A4328
:101D90009A607B681B680122134055D0544B1B6826
:101DA0001C22934319007B689A68514B0A431A60BE
:101DB0007B685B68012B07D14D4B1A6880239B021F
:101DC00013401FD101238BE07B685B68002B07D198
:101DD000474B1A688023DB00134013D101237FE0B7
:101DE0007B685B68032B06D1414B1B6E02221340BC
:101DF00008D1012374E03E4BDB6D0222134001D178
:101E000001236DE03A4B9B680722934319007B68DE
:101E10005A68374B0A439A60FFF7E8F90300FB6002
:101E200009E0FFF7E3F90200FB68D31A2F4A934257
:101E300001D9032354E02E4B9B6838221A407B685B
:101E40005B68DB009A42ECD1274B1B6807221340EA
:101E50003A689A421ED2244B1B680722934319000A
:101E6000214B3A680A431A60FFF7C0F90300FB6090
:101E700009E0FFF7BBF90200FB68D31A1B4A934243
:101E800001D903232CE0184B1B68072213403A6842
:101E90009A42EED17B681B680422134009D0144B90
:101EA0009B68164A134019007B681A69104B0A4355
:101EB0009A6000F02BF801000D4B9B681B0A0F2263
:101EC0001A400F4B9200D3581F2213400A00DA40E9
:101ED0000C4B1A600C4B1B681800FFF72BF9030022
:101EE0001800BD4604B080BD0020024088130000E9
:101EF00000100240FF84FFFFFFF0FFFFFF8FFFFF96
:101F0000204C00080C0000201000002080B582B09A
:101F100000AF1C4B9B68382213400FD1194B1B6834
:101F2000DB0A0722134001229A4013003B60396804
:101F30001548FEF7F3F803007B601EE0114B9B6829
:101F400038221340082B02D1104B7B6015E00D4B5B
:101F50009B6838221340202B03D180231B027B6017
:101F60000BE0084B9B6838221340182B03D1FA234F
:101F7000DB017B6001E000237B607B681800BD46CD
:101F800002B080BD00100240006CDC0200127A003A
:101F900080B500AF024B1B681800BD4680BDC0462F
:101FA0000C00002080B500AFFFF7F2FF0100074BE7
:101FB0009B681B0B07221A40054B9200D3581F2227
:101FC0001340D9400B001800BD4680BD00100240F0
:101FD000604C000880B586B000AF78601323FB1812
:101FE00000221A701223FB1800221A707B681A68EC
:101FF00080239B02134000D179E011203B1800227E
:102000001A70644BDA6B80235B05134010D1614B6F
:10201000DA6B604B802149050A43DA635D4BDA6B6A
:1020200080235B051340BB60BB683B1801221A701C
:10203000584BDA6DC0239B0013407B617B69002BFA
:1020400019D07B689B697A699A4214D0514BDB6D39
:10205000514A13407B614F4BDA6D4E4B8021490250
:102060000A43DA654B4BDA6D4A4B4C490A40DA6554
:10207000484B7A69DA657B690122134016D0FFF775
:10208000B5F80300FB600CE0FFF7B0F80200FB6856
:10209000D31A434A934204D91323FB1803221A701C
:1020A00004E03C4BDB6D02221340EDD01323FB1800
:1020B0001B78002B0AD1374BDB6D374A13401900D0
:1020C0007B689A69334B0A43DA6505E01223FB18F3
:1020D0001322BA1812781A701123FB181B78012BDF
:1020E00005D12C4BDA6B2B4B2E490A40DA637B6807
:1020F0001B680122134009D0264B5B6D03229343DA
:1021000019007B689A68234B0A435A657B681B68F1
:102110004022134009D01F4B5B6D234A1340190026
:102120007B68DA681B4B0A435A657B681A68802310
:10213000DB01134008D0174B5B6D9B0099087B684F
:102140005A69144B0A435A657B681A6880231B013D
:10215000134009D00F4B5B6D144A134019007B6884
:102160001A690C4B0A435A657B681B68002B09DA15
:10217000084B1B68E022934319007B685A68054BA3
:102180000A431A601223FB181B781800BD4606B0DC
:1021900080BDC04600100240FFFCFFFFFFFFFEFFB6
:1021A00088130000FFFFFFEFFFCFFFFFFF3FFFFFA0
:1021B00080B584B000AF78607B68002B01D101232B
:1021C000A8E07B685B6A002B09D17B685A68822390
:1021D0005B009A4209D07B680022DA6105E07B68E7
:1021E00000221A617B6800225A617B6800229A6291
:1021F0007B685D229B5CDBB2002B07D17B685C2295
:10220000002199547B681800FEF720FD7B685D2251
:10221000022199547B681B681A687B681B684021FF
:102220008A431A607B68DA68E023DB009A4202D9AD
:102230000023FB6002E080235B01FB607B68DA68BF
:10224000F0231B019A4208D07B68DA68E023DB00A8
:102250009A4202D07B6800229A627B685A68822385
:102260005B001A407B68996884231B020B401A4369
:102270007B681B6902210B401A437B685B69012163
:102280000B401A437B68996980239B000B401A43DB
:102290007B68DB6938210B401A437B681B6A80210D
:1022A0000B401A4311007B689A6A80239B011A40F5
:1022B0007B681B680A431A607B689B691B0C0422BD
:1022C0001A407B685B6A10210B401A437B685B6B8A
:1022D00008210B401A437B68D968F0231B010B408F
:1022E0001A431100FA6880235B011A407B681B685F
:1022F0000A435A607B681B68DA697B681B68074978
:102300000A40DA617B6800221A667B685D2201213F
:10231000995400231800BD4604B080BDFFF7FFFFAD
:1023200080B58AB000AFF860B9607A601A00BB1C53
:102330001A8001237B622323FB1800221A70FB689A
:102340005C229B5C012B01D102231FE2FB685C2213
:1023500001219954FEF74AFF0300FB611B203B1843
:10236000FA685D21525C1A70FB685B687B6112231E
:10237000FB18BA1C12881A801023FB18BA1C12888A
:102380001A803B181B78012B11D07A6982235B00DD
:102390009A4207D1FB689B68002B03D13B181B783E
:1023A000042B04D02323FB1802221A70E3E1BB683C
:1023B000002B06D07B68002B03D0BB1C1B88002B96
:1023C00004D12323FB1801221A70D4E1FB685D229B
:1023D0009B5CDBB2042B03D0FB685D220521995482
:1023E000FB6800221A66FB687A681A64FB68BA1CEC
:1023F000462112885A52FB68BA1C442112885A524C
:10240000FB68BA689A63FB68BA1C1288DA87FB68B3
:10241000BA1C12889A87FB680022DA64FB680022E3
:102420001A65FB68DA68E023DB009A4204D81023BF
:10243000FB181B88012B08D9FB681B685A68FB68CE
:102440001B68CB490A405A6008E0FB681B685A6861
:10245000FB681B68802149010A435A60FB681B68BE
:102460001B6840221340402B07D0FB681B681A688A
:10247000FB681B6840210A431A60FB68DA68E023A6
:10248000DB009A4200D87FE0FB685B68002B05D038
:102490001223FB181B88012B00D069E0FB689B6BA3
:1024A0001A88FB681B68DA60FB689B6B9A1CFB68E8
:1024B0009A63FB68DB8F9BB2013B9AB2FB68DA87B9
:1024C00056E0FB681B689B6802221340022B1BD15D
:1024D000FB68DB8F9BB2002B16D07B6A012B13D1DC
:1024E000FB689B6B1A88FB681B68DA60FB689B6B58
:1024F0009A1CFB689A63FB68DB8F9BB2013B9AB224
:10250000FB68DA8700237B62FB681B689B680122FB
:102510001340012B1CD1FB6846229B5A9BB2002B17
:1025200016D0FB681B68DA68FB681B6C92B21A80D5
:10253000FB681B6C9A1CFB681A64FB6846229B5A5A
:102540009BB2013B99B2FB684622995201237B6200
:10255000FEF74CFE0200FB69D31A3A6B9A4207D889
:102560003B6B013304D02323FB1803221A7002E1D2
:10257000FB68DB8F9BB2002BA3D1FB6846229B5AE2
:102580009BB2002B9DD1E2E0FB685B68002B05D07D
:102590001223FB181B88012B00D0CBE0FB68DB8FDC
:1025A0009BB2012B12D9FB689B6B1A88FB681B68D6
:1025B000DA60FB689B6B9A1CFB689A63FB68DB8F95
:1025C0009BB2023B9AB2FB68DA87B3E0FB689A6B76
:1025D000FB681B680C3312781A70FB689B6B5A1CE3
:1025E000FB689A63FB68DB8F9BB2013B9AB2FB6886
:1025F000DA879FE0FB681B689B6802221340022B6E
:1026000034D1FB68DB8F9BB2002B2FD07B6A012B70
:102610002CD1FB68DB8F9BB2012B12D9FB689B6B23
:102620001A88FB681B68DA60FB689B6B9A1CFB6866
:102630009A63FB68DB8F9BB2023B9AB2FB68DA8736
:1026400012E0FB689A6BFB681B680C3312781A70F7
:10265000FB689B6B5A1CFB689A63FB68DB8F9BB221
:10266000013B9AB2FB68DA8700237B62FB681B6838
:102670009B6801221340012B49D1FB6846229B5ADB
:102680009BB2002B43D0FB6846229B5A9BB2012B86
:1026900024D9FB681B68DA68FB681B6C92B21A804D
:1026A000FB681B6C9A1CFB681A64FB6846229B5AE9
:1026B0009BB2023B99B2FB6846229952FB684622C4
:1026C0009B5A9BB2012B20D8FB681B685A68FB6899
:1026D0001B68802149010A435A6016E0FB681B68A9
:1026E0000C331A00FB681B6C1278D2B21A70FB68AC
:1026F0001B6C5A1CFB681A64FB6846229B5A9BB2EF
:10270000013B99B2FB684622995201237B62FEF796
:102710006DFD0200FB69D31A3A6B9A4202D83B6BFB
:10272000013302D13B6B002B04D12323FB1803227E
:102730001A7020E0FB68DB8F9BB2002B00D059E7BA
:10274000FB6846229B5A9BB2002B00D052E7FA69E5
:10275000396BFB68180000F04DF9031E0AD02323E3
:10276000FB1801221A70FB6820221A6603E0C0469B
:10277000FFEFFFFFC046FB685D2201219954FB6813
:102780005C22002199542323FB181B781800BD46B6
:102790000AB080BD80B588B000AFF860B9603B601A
:1027A000FB1D1A70FEF722FD0200BB6A9B1A3A68F5
:1027B000D318FB61FEF71AFD0300BB613A4B1B689F
:1027C0005B011B0DFA6953437B6158E03B680133A1
:1027D00055D0FEF70BFD0200BB69D31AFA699A4285
:1027E00002D9FB69002B42D1FB681B685A68FB6861
:1027F0001B68E0218A435A60FB685A6882235B00A9
:102800009A4213D1FB689A6880231B029A4205D032
:10281000FB689A688023DB009A4207D1FB681B683B
:102820001A68FB681B6840218A431A60FB689A6A31
:1028300080239B019A4210D1FB681B681A68FB68D1
:102840001B681A490A401A60FB681B681A68FB6813
:102850001B68802189010A431A60FB685D220121FF
:102860009954FB685C2200219954032317E07B698B
:10287000002B01D10023FB617B69013B7B61FB687D
:102880001B689B68BA681340BA68D31A5A4253410E
:10289000DBB21A00FB1D1B789A4297D10023180067
:1028A000BD4608B080BDC0460C000020FFDFFFFF22
:1028B00080B58AB000AFF860B9607A603B601723DA
:1028C000FB1800221A70FEF791FC02003B6B9B1A6A
:1028D0003A68D3187B62FEF789FC03003B62FB6811
:1028E0001B680C33FB61414B1A6813009B009B185B
:1028F000DA00D31A1B0D7A6A5343BB6168E0BA68E9
:10290000C023DB009A420AD17B68002B07D1FB6908
:102910001B78DAB217217B181A707B181B783B687A
:10292000013355D0FEF762FC02003B6AD31A7A6A83
:102930009A4202D97B6A002B42D1FB681B685A6815
:10294000FB681B68E0218A435A60FB685A6882234F
:102950005B009A4213D1FB689A6880231B029A425B
:1029600005D0FB689A688023DB009A4207D1FB6898
:102970001B681A68FB681B6840218A431A60FB6861
:102980009A6A80239B019A4210D1FB681B681A68DF
:10299000FB681B6816490A401A60FB681B681A68C6
:1029A000FB681B68802189010A431A60FB685D226D
:1029B00001219954FB685C2200219954032310E003
:1029C000BB69002B01D100237B62BB69013BBB616A
:1029D000FB681B689B68BA6813407A689A428ED17C
:1029E00000231800BD460AB080BDC0460C00002080
:1029F000FFDFFFFF80B586B002AFF860B9607A6094
:102A0000BA68C0235901F8687B680093130000225C
:102A1000FFF74EFF031E07D0FB681B6E20221A43F0
:102A2000FB681A66032327E0BA68F8687B6800939E
:102A3000130000228021FFF7ADFE031E07D0FB68C4
:102A40001B6E20221A43FB681A66032314E0BA683F
:102A5000C023D900F8687B68009313000022FFF7B9
:102A600027FF031E07D0FB681B6E20221A43FB685A
:102A70001A66032300E000231800BD4604B080BDA1
:102A800080B582B000AF78607B68002B01D1012354
:102A900046E07B6888229B58002B07D17B68842204
:102AA000002199547B681800FEF79CFA7B68882205
:102AB000242199507B681B681A687B681B68012178
:102AC0008A431A607B689B6A002B03D07B681800DE
:102AD00000F0E4FC7B68180000F062FB0300012BAF
:102AE00001D101231CE07B681B685A687B681B6866
:102AF0000D490A405A607B681B689A687B681B68AE
:102B00002A218A439A607B681B681A687B681B6865
:102B100001210A431A607B68180000F073FD03006E
:102B20001800BD4602B080BDFFB7FFFFB0B5AAB028
:102B300000AF78607B681B68DB69A422B9180B6062
:102B40007B681B681B68A02039180B607B681B68BA
:102B50009B689C2439190B601100BB181B68A24AA2
:102B600013409822BD182B60BB181B68002B1AD18C
:102B70007B181B682022134015D03B181B682022AD
:102B8000134005D13B191A6880235B0513400AD016
:102B90007B685B6F002B00D1DCE27B685B6F7A683F
:102BA00010009847D6E29823FB181B68002B00D131
:102BB00022E19C23FB181B688C4A134006D1A023FA
:102BC000FB181B688A4A134000D115E1A423FB18A7
:102BD0001B680122134012D0A023FB181A6880231F
:102BE0005B0013400BD07B681B6801221A627B6874
:102BF00090229B5801221A437B6890215A50A423AB
:102C0000FB181B680222134011D09C23FB181B6881
:102C1000012213400BD07B681B6802221A627B687A
:102C200090229B5804221A437B6890215A50A42377
:102C3000FB181B680422134011D09C23FB181B684F
:102C4000012213400BD07B681B6804221A627B6848
:102C500090229B5802221A437B6890215A50A42349
:102C6000FB181B680822134017D0A023FB181B6811
:102C70002022134005D19C23FB181B685B4A13409C
:102C80000BD07B681B6808221A627B6890229B58D5
:102C900008221A437B6890215A50A423FB181A6813
:102CA00080231B01134013D0A023FB181A68802334
:102CB000DB0413400CD07B681B68802212011A626F
:102CC0007B6890229B5820221A437B6890215A509F
:102CD0007B6890229B58002B00D13DE2A423FB1877
:102CE0001B682022134015D0A023FB181B6820224C
:102CF000134006D19C23FB181A6880235B05134000
:102D000008D07B685B6F002B04D07B685B6F7A68B0
:102D1000100098477B6890229B5894217A18136082
:102D20007B681B689B6840221340402B04D07B18B3
:102D30001B68282213404CD07B68180000F076FDF9
:102D40007B681B689B6840221340402B3CD1EFF30B
:102D500010833B663B6E90203A18136001237B661C
:102D60007B6E83F31088C0467B681B689A687B681B
:102D70001B6840218A439A603B181B68BB66BB6E88
:102D800083F31088C0467B6880229B58002B16D0A6
:102D90007B6880229B58174A9A637B6880229B58E5
:102DA0001800FEF791FB031E1CD07B6880229B5805
:102DB0009B6B7A68802152581000984712E07B681C
:102DC000180000F0D9F90DE07B68180000F0D4F984
:102DD00008E07B68180000F0CFF97B6890220021A2
:102DE0009950B9E1C046B7E10F080000010000109A
:102DF00020010004F93800087B68DB6E012B00D04D
:102E00003EE1A423FB181B681022134000D137E1D8
:102E1000A023FB181B681022134000D130E17B680F
:102E20001B6810221A627B681B689B684022134053
:102E3000402B00D0A4E07B6880229B581B685A6816
:102E40007E217B181A807B181B88002B00D185E11E
:102E50007B685C229B5A7A1812889A4200D37DE1E3
:102E60007B687A185E2112885A527B6880229B58B0
:102E70001B681B682022134070D1EFF310833B6363
:102E80003B6BBB6701237B637B6B83F31088C0467E
:102E90007B681B681A687B681B68B4490A401A6023
:102EA000BB6FBB63BB6B83F31088C046EFF310832B
:102EB000FB63FB6B7B6701233B643B6C83F31088F4
:102EC000C0467B681B689A687B681B6801218A433F
:102ED0009A607B6F7B647B6C83F31088C046EFF352
:102EE0001083BB64BB6C3B670123FB64FB6C83F307
:102EF0001088C0467B681B689A687B681B68402105
:102F00008A439A603B6F3B653B6D83F31088C046F4
:102F10007B688C22202199507B680022DA66EFF3CF
:102F200010837B657B6DFB660123BB65BB6D83F303
:102F30001088C0467B681B681A687B681B68102174
:102F40008A431A60FB6EFB65FB6D83F31088C046F5
:102F50007B6880229B581800FEF754FA7B68022297
:102F60001A677B685C229A5A7B685E215B5A9BB227
:102F7000D31A9AB27B681100180000F005F9EDE051
:102F80007B685C22995A7B685E229B5A9AB28E209B
:102F90003B188A1A1A807B685E229B5A9BB2002BD0
:102FA00000D1DDE03B181B88002B00D1D8E0EFF307
:102FB0001083FB60FB6888243A19136001233B618E
:102FC0003B6983F31088C0467B681B681A687B687E
:102FD0001B6867490A401A603B191B687B617B6963
:102FE00083F31088C046EFF31083BB61BB69842470
:102FF0003A1913600123FB61FB6983F31088C04613
:103000007B681B689A687B681B685A490A409A600B
:103010003B191B683B623B6A83F31088C0467B68A0
:103020008C22202199507B680022DA667B6800227E
:103030005A67EFF310837B627B6A80243A1913602E
:103040000123BB62BB6A83F31088C0467B681B68A0
:103050001A687B681B6810218A431A603B191B6839
:10306000FB62FB6A83F31088C0467B6802221A6702
:103070003B181A887B681100180000F085F86FE093
:10308000A423FB181A6880235B03134010D09C23F1
:10309000FB181A688023DB03134009D07B681B6888
:1030A000802252031A627B68180000F068FC5AE024
:1030B000A423FB181B688022134016D0A023FB1802
:1030C0001B688022134006D19C23FB181A688023BA
:1030D0001B04134009D07B689B6F002B42D07B6898
:1030E0009B6F7A68100098473CE0A423FB181B688C
:1030F000402213400AD0A023FB181B684022134033
:1031000004D07B68180000F00EFC2CE0A423FB1810
:103110001A6880231B0413400BD0A023FB181A68E5
:103120008023DB05134004D07B68180000F037FCD7
:1031300019E0A423FB181A6880235B04134012D003
:10314000A023FB181B68002B0DDA7B68180000F029
:103150001EFC08E0C04606E0C04604E0C04602E0AF
:10316000C04600E0C046BD462AB0B0BDFFFEFFFF2E
:10317000DFFEFFFFFEFFFFEF80B582B000AF78609B
:10318000C046BD4602B080BD80B582B000AF786059
:103190000A00BB1C1A80C046BD4602B080BD0000BC
:1031A00080B588B000AF78601E23FB1800221A702B
:1031B0007B689A687B681B691A437B685B691A4362
:1031C0007B68DB6913437B617B681B681B68AB4AC8
:1031D000134019007B681B687A690A431A607B6890
:1031E0001B685B68A64A134019007B68DA687B6835
:1031F0001B680A435A607B689B697B617B681B6A1A
:103200007A6913437B617B681B689B689D4A134006
:1032100019007B681B687A690A439A607B681B689F
:10322000DB6A0F22934319007B685A6A7B681B682C
:103230000A43DA627B681B68934A934227D1934B17
:103240005B6D03221340032B17D01BD8022B0AD02F
:1032500018D8002B02D0012B0AD013E01F23FB1833
:1032600000221A7021E01F23FB1802221A701CE0B2
:103270001F23FB1804221A7017E01F23FB180822D3
:103280001A7012E01F23FB1810221A700DE07B68E1
:103290001B687F4A934204D11F23FB1800221A7037
:1032A00003E01F23FB1810221A707B68DA69802361
:1032B0001B029A4200D06FE01F23FB181B78082BDB
:1032C0001FD022DC042B17D01FDC002B02D0022BD6
:1032D00005D01AE0FEF766FE0300BB611CE06B4BF5
:1032E0001B685B0907221340013319006948FCF78A
:1032F00015FF0300BB610FE0FEF708FE0300BB6192
:103300000AE080231B02BB6106E00023BB611E2391
:10331000FB1801221A70C046BB69002B00D197E050
:103320007B685A6A5C4B5200D35A1900B869FCF7A3
:10333000F5FE03005A007B685B685B08D2187B6867
:103340005B6819001000FCF7E9FE03003B613B6974
:103350000F2B1CD93A6980235B029A4217D23B6932
:103360009AB20E203B180F218A431A803B695B08F2
:103370009BB20722134099B23B183A1812880A43AD
:103380001A807B681B683A181288DA6060E01E2396
:10339000FB1801221A705BE01F23FB181B78082B17
:1033A0001FD022DC042B17D01FDC002B02D0022BF5
:1033B00005D01AE0FEF7F6FD0300BB611CE0334BBD
:1033C0001B685B0907221340013319003148FCF7E1
:1033D000A5FE0300BB610FE0FEF798FD0300BB6193
:1033E0000AE080231B02BB6106E00023BB611E23B1
:1033F000FB1801221A70C046BB69002B28D07B68DD
:103400005A6A254B5200D35A1900B869FCF786FE58
:1034100003001A007B685B685B08D2187B685B68F6
:1034200019001000FCF77AFE03003B613B690F2B8B
:103430000AD93A6980235B029A4205D23B699AB263
:103440007B681B68DA6003E01E23FB1801221A70F8
:103450007B686A22012199527B6868220121995276
:103460007B6800225A677B6800229A671E23FB183C
:103470001B781800BD4608B080BDC046F369FFCF79
:10348000FFCFFFFFFFF4FF110038014000100240A2
:1034900000440040006CDC02804C000880B582B023
:1034A00000AF78607B689B6A082213400BD07B6872
:1034B0001B685B684A4A134019007B689A6B7B68FB
:1034C0001B680A435A607B689B6A012213400BD039
:1034D0007B681B685B68434A134019007B68DA6AA3
:1034E0007B681B680A435A607B689B6A0222134010
:1034F0000BD07B681B685B683B4A134019007B68F4
:103500001A6B7B681B680A435A607B689B6A0422BB
:1035100013400BD07B681B685B68344A134019006A
:103520007B685A6B7B681B680A435A607B689B6A9E
:10353000102213400BD07B681B689B682C4A1340F9
:1035400019007B68DA6B7B681B680A439A607B68AA
:103550009B6A202213400BD07B681B689B68254A1E
:10356000134019007B681A6C7B681B680A439A60D9
:103570007B689B6A402213401DD07B681B685B6898
:103580001D4A134019007B685A6C7B681B680A430C
:103590005A607B685A6C80235B039A420BD17B682C
:1035A0001B685B68154A134019007B689A6C7B683E
:1035B0001B680A435A607B689B6A802213400BD0C9
:1035C0007B681B685B680E4A134019007B68DA6CE5
:1035D0007B681B680A435A60C046BD4602B080BD86
:1035E000FF7FFFFFFFFFFDFFFFFFFEFFFFFFFBFF72
:1035F000FFEFFFFFFFDFFFFFFFFFEFFFFFFF9FFF7B
:10360000FFFFF7FF80B592B002AF78607B68902231
:1036100000219950FDF7EAFD0300FB637B681B68FE
:103620001B6808221340082B2DD1FB6B80229103CD
:103630007868474A0092002200F08EF8031E22D0DC
:10364000EFF310837B627B6ABB630123BB62BB6ABF
:1036500083F31088C0467B681B681A687B681B6808
:1036600080218A431A60BB6BFB62FB6A83F310887C
:10367000C0467B688822202199507B6884220021E3
:103680009954032360E07B681B681B680422134085
:10369000042B46D1FB6B8022D10378682C4A009220
:1036A000002200F059F8031E3BD0EFF31083FB60BB
:1036B000FB687B6301233B613B6983F31088C04651
:1036C0007B681B681A687B681B6822490A401A607D
:1036D0007B6B7B617B6983F31088C046EFF31083BB
:1036E000BB61BB693B630123FB61FB6983F310880A
:1036F000C0467B681B689A687B681B6801218A4307
:103700009A603B6B3B623B6A83F31088C0467B68E0
:103710008C22202199507B68842200219954032314
:1037200012E07B688822202199507B688C2220211E
:1037300099507B680022DA667B6800221A677B68F2
:1037400084220021995400231800BD4610B080BD8A
:10375000FFFFFF01DFFEFFFF80B584B000AFF86020
:10376000B9603B60FB1D1A704BE0BB69013348D068
:10377000FDF73CFD02003B68D31ABA699A4202D3B6
:10378000BB69002B01D103234BE0FB681B681B685E
:103790000422134035D0FB681B68DB690822134004
:1037A000082B11D1FB681B6808221A62FB681800FD
:1037B00000F03CF8FB68902208219950FB688422B5
:1037C0000021995401232CE0FB681B68DA698023EF
:1037D0001B011A4080231B019A4212D1FB681B680F
:1037E000802212011A62FB68180000F01FF8FB68C3
:1037F000902220219950FB688422002199540323B0
:103800000FE0FB681B68DB69BA681340BA68D31A1B
:103810005A425341DBB21A00FB1D1B789A42A4D0D6
:1038200000231800BD4604B080BD000080B58EB0F6
:1038300000AF7860EFF310837B617B697B630123CA
:10384000BB61BB6983F31088C0467B681B681A683C
:103850007B681B6826490A401A607B6BFB61FB6929
:1038600083F31088C046EFF310833B623B6A3B63EF
:1038700001237B627B6A83F31088C0467B681B68E8
:103880009A687B681B681B490A409A603B6BBB6265
:10389000BB6A83F31088C0467B68DB6E012B18D1AE
:1038A000EFF31083BB60BB68FB620123FB60FB6826
:1038B00083F31088C0467B681B681A687B681B68A6
:1038C00010218A431A60FB6A3B613B6983F31088CD
:1038D000C0467B688C22202199507B680022DA66E2
:1038E0007B6800225A67C046BD460EB080BDC04608
:1038F000DFFEFFFFFEFFFFEF80B584B000AF786012
:103900007B689B6AFB60FB685E2200219952FB6822
:10391000562200219952FB681800FFF72DFCC04683
:10392000BD4604B080BD80B586B000AF7860EFF3CF
:103930001083BB60BB687B610123FB60FB6883F382
:103940001088C0467B681B681A687B681B6840212A
:103950008A431A607B693B613B6983F31088C046E8
:103960007B688822202199507B6800229A677B68B7
:103970001800FCF749FDC046BD4606B080BD80B5C5
:1039800082B000AF7860C046BD4602B080BD80B551
:1039900082B000AF7860C046BD4602B080BD80B541
:1039A00082B000AF7860C046BD4602B080BD000066
:1039B00080B584B000AF78607B6884229B5C012B6B
:1039C00001D1022327E07B688422012199547B687E
:1039D0008822242199507B681B681B68FB607B68E8
:1039E0001B681A687B681B6801218A431A60FB68A0
:1039F0000B4A1340FB607B6800225A667B681B6899
:103A0000FA681A607B688822202199507B6884229A
:103A10000021995400231800BD4604B080BDC04663
:103A2000FFFFFFDF80B584B000AF786039607B684E
:103A300084229B5C012B01D102232EE07B6884222F
:103A4000012199547B688822242199507B681B6846
:103A50001B68FB607B681B681A687B681B68012118
:103A60008A431A607B681B689B68DB00D9087B6807
:103A70001B683A680A439A607B68180000F054F8A3
:103A80007B681B68FA681A607B688822202199503D
:103A90007B6884220021995400231800BD4604B09D
:103AA00080BD000080B584B000AF786039607B686D
:103AB00084229B5C012B01D102232FE07B688422AE
:103AC000012199547B688822242199507B681B68C6
:103AD0001B68FB607B681B681A687B681B68012198
:103AE0008A431A607B681B689B680E4A1340190062
:103AF0007B681B683A680A439A607B68180000F08C
:103B000013F87B681B68FA681A607B68882220219A
:103B100099507B6884220021995400231800BD46E7
:103B200004B080BDFFFFFFF1F0B585B000AF786055
:103B30007B685B6E002B08D17B686A220121995259
:103B40007B6868220121995243E00F26BB190822A5
:103B50001A700E203B1808221A707B681B689B683D
:103B60005B0EDAB20D243B1907210A401A707B68FC
:103B70001B689B685B0FDAB20C257B1907210A4092
:103B80001A703B181B787A19127814498A5C5A43C8
:103B900010007B191B78124AD35C1900FCF748FB14
:103BA000030099B27B686A229952BB191B783A19B3
:103BB00012780A498A5C5A4310003B191B78084A5C
:103BC000D35C1900FCF734FB030099B27B686822D0
:103BD0009952C046BD4605B0F0BDC046984C00089D
:103BE000A04C00087FB514001A00094B05001B68A3
:103BF0000E00D868074B002C01D1074B1C00074969
:103C0000019302942B00009600F0B2F800F0ABF99B
:103C100024000020A84C0008E34C0008B54C000824
:103C2000002310B504000360436083608181436614
:103C3000C281036143618361190008225C3000F096
:103C40000FF90B4B246263620A4BA3620A4BE362D7
:103C50000A4B23630A4B9C4205D00A4B9C4202D07C
:103C6000094B9C4203D12000583000F079F910BD77
:103C7000C93D0008F13D0008293E0008553E0008F6
:103C8000B0010020180200208002002010B5034A75
:103C90000349044800F07CF810BDC046180000201D
:103CA000FD4700082800002041680B4B10B50400B8
:103CB000994201D000F0A2FDA168084B994202D0C0
:103CC000200000F09BFDE168054B994202D02000E6
:103CD00000F094FD10BDC046B00100201802002085
:103CE0008002002010B5094B094A04211A600948D6
:103CF0000022FFF795FF012209210748FFF790FFF7
:103D0000022212210548FFF78BFF10BDE8020020B8
:103D10008D3C0008B0010020180200208002002025
:103D200010B5024800F01DF910BDC046F102002098
:103D300010B5024800F016F910BDC046F10200208F
:103D400010B50400FFF7ECFF236A002B02D0FFF749
:103D5000EFFF10BD044B2362044B1B68002BF6D110
:103D6000FFF7C0FFF3E7C046A93C0008E8020020C7
:103D70000EB417B5054C05AB04CB010020680193C8
:103D800000F01CFA1EBC08BC03B018472400002039
:103D9000F7B51400002600900191A5686768013FFF
:103DA00004D52468002CF8D13000FEBDAB89012B6E
:103DB00008D90E22AB5E013304D029000098019B84
:103DC000984706436835EAE770B50C000E25495F51
:103DD00000F074F8002803DB636D1B18636570BD89
:103DE000A389024A1340A381F9E7C046FFEFFFFF12
:103DF000F8B51F008B8905000C001600DB0505D502
:103E00000E23C95E0022022300F044F8A389054A6C
:103E100028001340A38132000E23E15E3B0000F036
:103E200061F8F8BDFFEFFFFF70B50C000E25495F8C
:103E300000F030F8A389421C03D1054A1340A38146
:103E400070BD802252011343A3816065F8E7C0462C
:103E5000FFEFFFFF10B50E23C95E00F009F810BD9B
:103E600003008218934200D1704719700133F9E7BB
:103E7000002370B5064D040008002B60FCF7F6FF28
:103E8000431C03D12B68002B00D0236070BDC046BB
:103E9000EC02002070B50400080011001A00002395
:103EA000054D2B60FDF703F8431C03D12B68002B55
:103EB00000D0236070BDC046EC02002070B5040045
:103EC000080011001A000023054D2B60FCF795FF38
:103ED000431C03D12B68002B00D0236070BDC0466B
:103EE000EC02002070B50400080011001A00002345
:103EF000054D2B60FCF79EFF431C03D12B68002B64
:103F000000D0236070BDC046EC020020014B186851
:103F10007047C0462400002070B500260C4C0D4DA3
:103F2000641BA410A64209D1002600F02BFE0A4C07
:103F30000A4D641BA410A64205D170BDB300EB5816
:103F400098470136EEE7B300EB5898470136F2E7A1
:103F5000184D0008184D00081C4D0008184D0008A9
:103F6000704770477047062010B500F03DFD0120F6
:103F7000FCF736FF70B505000C1E10D0043C23681A
:103F8000002B00DAE418280000F0E0F81D4A13685E
:103F9000002B05D163601460280000F0DFF870BDCD
:103FA000A34208D9206821188B42F3D119685B68B5
:103FB00009182160EEE71A005B68002B01D0A342CC
:103FC000F9D911685018A0420BD12068091850186F
:103FD00011608342E0D118685B684118116053603A
:103FE000DAE7A04202D90C232B60D5E7206821181C
:103FF0008B4203D119685B680918216063605460C3
:10400000CAE7C046F802002070B50F4E0D003168B7
:104010000400002902D100F007FD306029002000D3
:1040200000F002FD431C03D101256D42280070BD44
:104030000323C51C9D43A842F8D0291A200000F094
:10404000F3FC0130F2D1EFE7F4020020F7B50322D0
:10405000CB1C9343083305001F000C2B34D20C27D4
:10406000B94233D8280000F071F8374E33681C008D
:10407000002C2FD139002800FFF7C6FF0400431C95
:104080005FD134680094009B002B4AD1002C52D0A1
:1040900023682800E3180099019300F0C5FC019BF8
:1040A000834248D123682800FF1A3900FFF7ACFF8C
:1040B000013040D02368DB19236033685A68002A36
:1040C00033D1009B336019E0002BC9DA0C232B603D
:1040D0000020FEBD2168C91B20D40B290AD9E21992
:1040E0002760A34204D1326063681160536005E029
:1040F0005A60F9E76268A3420ED13260280000F0EE
:104100002DF8200007220B30231D9043C21A98423D
:10411000DFD01B1AA350DCE75A60EFE72300646886
:10412000A6E7009C63680093ADE71A005B68A342B2
:10413000FBD10023DAE70C2328002B6000F00EF8F7
:10414000C6E70760DAE7C046F802002010B502486B
:10415000FFF707FF10BDC046F002002010B502486F
:10416000FFF700FF10BDC046F0020020936810B5B5
:10417000013B9360002B04DA9469A34207DB0A2910
:1041800005D01368581C10601970080010BD00F0AD
:1041900060FB0100F9E7F8B506000F001400D51820
:1041A000AC4201D1002007E021783A003000FFF74F
:1041B000DDFF0134431CF3D1F8BD0000F0B5A1B020
:1041C0000F0015001E000390002804D0036A002B86
:1041D00001D1FFF7B5FD7B6EDB0705D4BB899B05DD
:1041E00002D4B86DFFF7BDFEBB891B0702D53B6942
:1041F000002B13D13900039800F06EFB00280DD07E
:104200007B6EDB0703D50120404221B0F0BDBB89A6
:104210009B05F8D4B86DFFF7A5FEF4E7002308ACC2
:104220006361203363761033A37607962E003378CC
:10423000002B01D0252B48D1731B0593AE420BD028
:104240002A0039000398FFF7A6FF013000D1AEE045
:104250006369059A9B1863613378002B00D1A6E04F
:10426000012200235242626004A954325218751C84
:104270002360E360A3601370A365594B0522180007
:104280002978059300F0E2FB6E1C00281FD12268FC
:10429000D30604D5532304A95B18202119701307F2
:1042A00004D5532304A95B182B2119702B782A2BD2
:1042B00016D02E0000210A20E3683278751C303AAF
:1042C000092A50D9002911D117E00136AFE7059B23
:1042D0002268C01A01238340134335002360CCE7D2
:1042E000079B191D1B680791002B01DB0B9304E052
:1042F0005B42E36002231343236033782E2B0CD1FF
:1043000073782A2B34D1079B02361A1D1B6807923B
:10431000002B01DA01235B420993324D032228006E
:10432000317800F093FB002806D04023401B8340E7
:104330002268013613432360317806222A48751C0F
:10434000217600F083FB002840D0284B002B22D19F
:104350000722079B07339343083307936369049A43
:104360009B18636162E743432E0001219B18A4E779
:1043700000230A201900013663603278751C303A38
:10438000092A03D9002BC8D00991C6E741432E0062
:1043900001238918F1E707AA009221003A00144B83
:1043A000039800E000BF0490049B0133D6D17B6EDC
:1043B000DB0705D4BB899B0502D4B86DFFF7D2FD9E
:1043C000BB895B0600D51EE70D981EE707AA009281
:1043D00021003A00064B039800F07CF8E3E7C04662
:1043E000E44C0008EA4C0008EE4C00080000000015
:1043F00097410008F7B5160001938A680B690C0015
:104400000090934200DA13002200336043321278A6
:10441000002A01D00133336023689B0602D533683C
:10442000023333602268062315001D401A4227D04C
:10443000230043331B785A1E93412268920630D4DE
:10444000220001990098089D4332A847013025D0E9
:104450000622236800251340042B05D13368E56844
:10446000ED1AEB43DB171D40A3682269934201DD7F
:104470009B1AED180026B54220D1002010E001352E
:10448000E36832689B1AAB42D2DD22000123019916
:104490000098089F1932B8470130F0D101204042FE
:1044A000FEBD3020E1184331087021005A1C45310F
:1044B0000978A218433202331170C1E722000123A8
:1044C00001990098089F1A32B8470130E6D00136AA
:1044D000D1E70000F0B58BB006920A004332079393
:1044E000059003920A7E0C00109B782A09D8622A54
:1044F0000BD8002A00D1BCE07B490491582A00D196
:1045000090E0250042352A7022E01000633815281B
:10451000F7D8FBF7F9FD16001F00F6FFF6FFF6FFD0
:10452000F6FF1F00F6FFF6FFF6FFF6FFA1003600CC
:104530008000F6FFF6FFB200F6FF3600F6FFF6FF4A
:10454000840025001A684235111D196013682B700C
:104550000123A0E018680968021D0D060BD5066846
:104560001A60002E03DA2D23039A764213705E4BF5
:104570000A27049318E006681A604906F1D536B296
:10458000EFE70868196840C9050602D4400600D55F
:10459000B6B21960544B0A2704936F2A00D1023F28
:1045A0002300002243331A706368A360002B03DBEF
:1045B000042122688A432260002E02D1039D002B31
:1045C0000CD0039D30003900FBF72EFE049B013D0B
:1045D0005B5C2B70330006009F42F3D9082F09D192
:1045E0002368DB0706D5626823699A4202DC302320
:1045F000013D2B70039B5B1B2361079B21000093F4
:104600000598069B09AAFFF7F5FE013048D1012065
:1046100040420BB0F0BD202209680A432260782294
:1046200032490491210045310A701968226840C955
:10463000100602D4500600D5B6B21960D30702D5D1
:10464000202313432360002E01D01027A8E7202247
:10465000236893432360F8E71A680D68101D4969C1
:10466000186013682E0601D5196002E06D06FBD5AF
:1046700019800023039D2361BFE71A68111D19608B
:10468000156800212800626800F0E0F9002801D0D8
:10469000401B6060636823610023039A1370ACE7DA
:1046A0002A00236906990598079DA8470130AED0D6
:1046B00023689B0715D4099BE0689842A9DA180083
:1046C000A7E72200012306990598079E1932B047F3
:1046D00001309CD00135E368099A9B1AAB42F0DCAB
:1046E000E9E70025F7E7C046F54C0008064D00084D
:1046F000F7B50C228B5E05000C001A0756D44A68E9
:10470000002A02DC0A6C002A4EDDE76A002F4BD03B
:10471000002280202E682A601A004001216A02408F
:10472000034233D0626DA3895B0706D56368D21A52
:10473000636B002B01D0236CD21A00232800E76A98
:10474000216AB847A289431C06D129681D2946D889
:10475000294B0B41DB0742D40023636023692360AC
:10476000D20405D5431C02D12B68002B00D1606513
:10477000616B2E60002917D023004433994202D088
:104780002800FFF7F7FB002363630DE001232800F7
:10479000B8470200431CC6D12B68002BC3D01D2B89
:1047A00001D0162B1AD12E6000201EE00E69002EBB
:1047B000FAD00F680E60BA1B019200229B0700D14D
:1047C0004A69A260019B002BEEDDA36A32001F0044
:1047D0002800019B216AB847002807DCA2894023F2
:1047E000012013431BB2A3814042FEBD019B36183A
:1047F0001B1A0193E6E7C046FEFFBFDF0B6970B5E9
:1048000005000C00002B02D10025280070BD0028F7
:1048100004D0036A002B01D1FFF792FA0C22A35EA9
:10482000002BF1D0626ED20704D49B0502D4A06D98
:10483000FFF797FB28002100FFF75AFF636E050082
:10484000DB07E2D4A3899B05DFD4A06DFFF78AFBC9
:10485000DBE7F8B506000D001400002804D0036A59
:10486000002B01D1FFF76CFAA369A360A3891B0792
:1048700002D52369002B09D12100300000F02CF86B
:10488000002803D001256D422800F8BD2369206867
:10489000EFB2C01A6369EDB2834205DC210030003B
:1048A000FFF7ACFF0028EDD1A3680130013BA36006
:1048B00023685A1C22601F706369834204D0A38955
:1048C000DB07E1D50A2DDFD121003000FFF796FF8D
:1048D0000028D9D0D6E700002D4B70B50500186828
:1048E0000C00002804D0036A002B01D1FFF728FA3E
:1048F0000C23E25E130723D4D30607D409232B60CD
:10490000402301201343A38140423AE0520713D5CC
:10491000616B002908D023004433994202D028005B
:10492000FFF728FB002363632422A3899343A38119
:1049300000236360236923600823A2891343A381B2
:104940002369002B0BD1A0218022A389890092002A
:104950000B40934203D02100280000F0ADF80C2357
:10496000E25E012113000B400A420BD00023A3603A
:1049700063695B42A36100202369834201D113066E
:10498000BED470BD910700D46369A360F3E7C0464D
:104990002400002070B504000D001F2904D916233F
:1049A00003600120404270BDC36B002B04D08A001D
:1049B0009B181A68002A08D1200000F031F82A005C
:1049C0000100200000F01AF8EDE7012A09D0511C7F
:1049D00003D1162303600120E5E7002128001960B8
:1049E00090470020DFE7000010B5034B0100186876
:1049F000FFF7D0FF10BDC04624000020002370B593
:104A0000064D0400080011002B60FCF7D9F9431C87
:104A100003D12B68002B00D0236070BDEC02002076
:104A200010B5FCF7C7F910BD002370B5064D0400A2
:104A300008002B60FCF746FA431C03D12B68002BBF
:104A400000D0236070BDC046EC020020C9B28218BD
:104A5000904201D10020704703788B42FBD0013097
:104A6000F6E7000070B50E001D000E23C95E1400AD
:104A700096B000290CDAB2898023110019401A423D
:104A800014D18023DB0000202960236016B070BDA4
:104A90006A4600F053F80028EDDBF02301991B0271
:104AA0001940044BC9184B425941EAE70021402301
:104AB000E9E7C04600E0FFFFF0B502268B8905005C
:104AC0000C0085B0334207D02300473323602361B5
:104AD0000123636105B0F0BD03AB02AAFFF7C2FF7B
:104AE000029F019039002800FFF7B0FA002808D192
:104AF0000C22A35E9A05EDD4032293431E43A681A4
:104B0000E2E78023A28920601343A381039B2061F5
:104B10006761002B0CD028000E23E15E00F020F826
:104B2000002805D00323A2899A43023B1343A381A3
:104B3000A389019A1343A381CCE70000002370B539
:104B4000064D0400080011002B60FCF799F9431C86
:104B500003D12B68002B00D0236070BDEC02002035
:104B6000002370B5064D040008002B60FCF796F991
:104B7000431C03D12B68002B00D0236070BDC046BE
:104B8000EC020020F8B5C046F8BC08BC9E46704751
:0C4B9000F8B5C046F8BC08BC9E46704753
:104B9C002861646472202620287E5F5350495F523E
:104BAC004541445F4D41534B2929203E20300000A4
:104BBC002E2E2F4170706C69636174696F6E2F6457
:104BCC006163313631733939372F64616331363172
:104BDC00733939375F726567732E630028616464BB
:104BEC0072202620287E5F5350495F524541445F16
:104BFC004D41534B2929203C3D2039000000000039
:104C0C005F646163313631733939375F6F705F724E
:104C1C0065670000000000000000000000000000BC
:104C2C000000000000000000000000000000000078
:104C3C000000000001000000020000000300000062
:104C4C00040000000600000007000000080000003F
:104C5C00090000000000000000000000000000003F
:104C6C000000000001000000020000000300000032
:104C7C0004000000010002000400060008000A0005
:104C8C000C00100020004000800000010101010315
:104C9C000701000008040204080101012C206675BC
:104CAC006E6374696F6E3A20006173736572746918
:104CBC006F6E2022257322206661696C65643A2030
:104CCC0066696C6520222573222C206C696E652028
:104CDC002564257325730A00232D302B2000686C66
:104CEC004C00656667454647003031323334353603
:104CFC00373839414243444546003031323334353C
:0C4D0C0036373839616263646566000068
:044D1800E9000008A6
:044D1C00C1000008CA
:104D2000B00000200000005010000000006CDC0209
:104D3000040000000100000000000000030000006B
:104D4000B00100202800002000000000B001002079
:104D50001802002080020020000000000000000077
:104D60000000000000000000000000000000000043
:104D70000000000000000000000000000000000033
:104D80000000000000000000000000000000000023
:044D9000000000001F
:04000005080010B52A
:00000001FF
